:020000040800F2
:1000000030170020450100086D0400080D020008AB
:10001000690400088B020008550900080000000070
:100020000000000000000000000000000D060008B5
:100030008F0200080000000097010008F906000880
:100040005F0100085F0100085F0100085F01000810
:100050005F0100085F0100085F0100085F01000800
:100060005F0100085F0100085F0100085F010008F0
:100070005F0100085F0100085F0100085F010008E0
:100080005F0100085F0100085F0100085F010008D0
:100090005F0100085F0100085F0100085F010008C0
:1000A0005F0100085F0100085F0100085F010008B0
:1000B0005F0100085F0100085F0100085F010008A0
:1000C0005F0100085F0100085F0100085F01000890
:1000D0005F0100085F0100085F0100085F01000880
:1000E0005F0100085F0100085F0100085F01000870
:1000F0005F0100085F0100085F0100085F01000860
:100100005F0100085F0100085F0100085F0100084F
:100110005F0100085F0100085F0100085F0100083F
:100120005F0100085F0100085F0100085F0100082F
:10013000DFF80CD000F092F8004800478102000878
:10014000301700200648804706480047FEE7FEE7D4
:10015000FEE7FEE7FEE7FEE7FEE7FEE7FEE7FEE777
:100160000907000831010008EFF3108072B67047EC
:1001700080F310887047324A1368012B04D04FF087
:10018000010313602F4A10602F4A11602F484FF06F
:10019000805101607047EFF3108272B62848016801
:1001A00091B14FF0000101602648016829B1EFF3D9
:1001B000098121E9F00F0068016023490968096895
:1001C000B1E8F00F81F3098882F310884EF0040E35
:1001D00070471D4908601B494FF00000086018492E
:1001E0004FF0010008601A481A49D0F8002041EA8F
:1001F0000201016015484FF0805101601648006807
:10020000006880F3088861B662B670471EF0040F7C
:100210000CBFEFF30880EFF3098020E9F00F40F8FE
:1002200004ED1EF0040F0CBF80F3088880F30988EA
:1002300000B500F02BFF5DF804EB4EF0040E7047A4
:100240003C000020340000203800002004ED00E0D5
:1002500020ED00E00000FFFF08ED00E0064C074D38
:1002600006E0E06840F0010394E807009847103486
:10027000AC42F6D3FFF760FF8C2A0008AC2A0008D6
:1002800010B502F0EBFA002010BD00BFFEE770478A
:100290002DE9F0410246002500260020002300241D
:1002A000002791F803C00CF00F0591F803C00CF083
:1002B000100CBCF1000F03D091F802C04CEA050508
:1002C00091F800C0BCF1000F31D0146800202BE081
:1002D0004FF0010C0CFA00F3B1F800C00CEA030671
:1002E0009E4220D183004FF00F0C0CFA03F7BC4361
:1002F00005FA03FC4CEA040491F803C0BCF1280F92
:1003000006D14FF0010C0CFA00FCC2F814C00AE050
:1003100091F803C0BCF1480F05D14FF0010C0CFA65
:1003200000FCC2F810C0401C0828D1D31460B1F8FA
:1003300000C0BCF1FF0F34DD546800202EE000F156
:10034000080C4FF0010808FA0CF3B1F800C00CEAF1
:1003500003069E4221D183004FF00F0C0CFA03F7E5
:10036000BC4305FA03FC4CEA040491F803C0BCF159
:10037000280F05D100F1080C08FA0CF8C2F8148017
:1003800091F803C0BCF1480F07D100F1080C4FF001
:10039000010808FA0CF8C2F81080401C0828CED3D7
:1003A0005460BDE8F0810246002093680B400BB119
:1003B000012000E00020704708B50121142000F062
:1003C000ABF80120ADF8000004208DF80300694669
:1003D0000748FFF75DFF4FF40050ADF80000042020
:1003E0008DF8030069460348FFF752FF08BD00007F
:1003F000000801400010014070B504460D46294632
:100400002046FFF7D0FF012808D100BF294620462B
:10041000FFF7C9FF0128F9D0012070BD0020FCE7DB
:1004200008B50121882000F077F82020ADF8000001
:1004300010208DF8030003208DF80200694609485A
:10044000FFF726FF0120ADF8000069460548FFF7D9
:100450001FFF0220ADF8000069460248FFF718FFB1
:1004600008BD0000000C014000BFFEE7704708B562
:100470004FF4A06000F046F825208DF80000012020
:100480008DF801008DF802008DF80300684600F039
:1004900001F808BD70B5002100230F22C47804B311
:1004A000154C246804F4E064C4F5E064210AC1F149
:1004B0000403CA40447804FA03F1847814402143C9
:1004C00009010E4C0678A155047804F01F0501249B
:1004D000AC4005786D11AD0005F1E025C5F800418F
:1004E00009E0047804F01F050124AC40044D0678AF
:1004F000761145F8264070BD0CED00E000E400E008
:1005000080E100E002490143024A116070470000A7
:100510000000FA050CED00E029B1064A9269024399
:10052000044B9A6104E0034A92698243014B9A6149
:10053000704700000010024030B500210022002466
:1005400000232D4D6D6805F00C0121B1042905D063
:10055000082923D105E0294D056022E0274D0560DB
:100560001FE0254D6D6805F47012234D6D6805F48C
:100570008034022505EB92421CB9214D554305609C
:100580000BE01D4D6D6805F400351DB11C4D554344
:10059000056002E0194D5543056002E0174D056006
:1005A00000BF00BF144D6D6805F0F0010909154D3D
:1005B0006B5C0568DD4045600F4D6D6805F4E061DA
:1005C000090A104D6B5C4568DD4085600A4D6D6819
:1005D00005F46051C90A0B4D6B5C4568DD40C56090
:1005E000054D6D6805F44041890B074D6B5CC5688E
:1005F000B5FBF3F5056130BD0010024000127A0032
:1006000000093D001400002024000020704710B5B0
:1006100000F002F810BD00000CB500200190009021
:100620003348006840F480303149086000BF3048EA
:10063000006800F4003000900198401C0190009880
:1006400018B90198B0F5A06FF1D12948006800F4FD
:10065000003010B10120009001E0002000900098CF
:10066000012843D12348006840F010002149086068
:100670000846006820F0030008600846006840F063
:10068000020008601A4840681949486008464068F6
:1006900048600846406840F480604860084640680A
:1006A00020F47C1048600846406840F4E810486038
:1006B0000846006840F08070086000BF0C48006881
:1006C00000F000700028F9D00948406820F00300CD
:1006D000074948600846406840F00200486000BF93
:1006E0000348406800F00C000828F9D10CBD000058
:1006F000001002400020024010B500F0EDFD01F0B6
:10070000B1FD00F0F9FD10BD10B51348006840F0D0
:1007100001001149086008464068104908400E4928
:100720004860084600680E4908400B4908600846C2
:10073000006820F4802008600846406820F4FE002D
:1007400048604FF41F008860FFF761FF4FF00060C2
:100750000449086010BD0000001002400000FFF8CE
:10076000FFFFF6FE08ED00E021B1828942F400525D
:10077000828104E082894DF6FF731A4082817047BE
:1007800000B585B001210420FFF7C6FE01218803D2
:10079000FFF7C2FE4FF40070ADF8100018208DF87E
:1007A000130003208DF8120004A91748FFF770FD0D
:1007B0004FF48060ADF8100004208DF8130004A9F8
:1007C0001148FFF765FD4FF4E13000900020ADF8CF
:1007D0000400ADF80600ADF80800ADF80C000C20E0
:1007E000ADF80A006946094800F044F8FFF73FFEFB
:1007F000012240F22551054800F017F80121034875
:10080000FFF7B2FF05B000BD00080140003801400D
:1008100002460020B1F5007F00D100BF13880B40D5
:100820000BB1012000E000207047F0B50346002422
:1008300000260025002040F66A17B94200D100BF0B
:100840001846C1F3421401F01F06012707FA06F506
:10085000012C01D10C3004E0022C01D1103000E059
:1008600014301AB107682F43076002E00768AF43EE
:100870000760F0BD2DE9F04786B005460E4600241E
:10088000A24600BFA1460027B08900B100BF2F4695
:100890002C8A4CF6FF700440F08804432C82AC890B
:1008A0004EF6F3100440B08831890843718908433B
:1008B0000443AC81AC8A4FF6FF400440B089044346
:1008C000AC8201A8FFF738FE1F48874202D1DDF84D
:1008D00010A001E0DDF80CA0A88900F4004040B1B0
:1008E0000AEBCA0000EB0A1031684900B0FBF1F8CE
:1008F00007E00AEBCA0000EB0A1031688900B0FB80
:10090000F1F86420B8FBF0F004012009642101FB38
:100910001089A88900F4004040B1322000EBC900E2
:10092000B0FBF1F000F00700044308E0322000EBD8
:1009300009106421B0FBF1F000F00F0004432C819A
:1009400006B0BDE8F087000000380140C1F308029E
:100950008280704700BFFEE7014609B9002070475A
:10096000C8B220B1C8B20E4A105C401CF7E701F4CF
:100970007F4028B10A48C1F30722805C0930EEE7C6
:1009800001F47F0028B10648C1F30742805C1130B2
:10099000E5E7034800EB116000781930DFE700005D
:1009A0005A29000802E008C8121F08C1002AFAD11B
:1009B00070477047002001E001C1121F002AFBD1DF
:1009C000704700002DE9FC5F04468B4615461E4625
:1009D000DDE90C9ADDE90E7804F114004060006056
:1009E00000BF1C346560A660C4F80C90C4F810A069
:1009F0002321D4E9030200F035FED4E9033C63442B
:100A00001A1F0F4BD4E9010100F040FC2060A776CB
:100A100067760020E061C4F82080C4F8248060611B
:100A200020766065A0651C3C00902346054A21465F
:100A3000019004F1440001F0C4FC0020BDE8FC9FDB
:100A4000A91F0008D52100082DE9F04704460E46ED
:100A500017469846DDF8209084F80990607A20F0D7
:100A600001006072E66127620020A062C4F8248061
:100A7000002506E004F1140101EBC50000F0B4FC10
:100A80006D1C012DF6DBBDE8F08770B5054600242E
:100A900006E005F1140101EBC40000F0E6FC641C63
:100AA000012CF6DB70BD70B50446FFF75DFB054613
:100AB000206F10B12046216F88472846FFF758FB6A
:100AC00070BD00001CB5002305220A2119A000F00A
:100AD000EDFD1A4908600846006810B118A000F042
:100AE00065FC642003214FF400730022CDE900105F
:100AF0001A491BA001F029FA1B4908600846006842
:100B000018B10846006801F02DFB642002210B0299
:100B10000022CDE90010154915A001F016FA16497A
:100B200008600846006818B10846006801F01AFB22
:100B300000201CBD746573746D71000028000020D6
:100B4000CFFBCFA2B6D3C1D0637265617465207349
:100B500075636365737320210D0A000089280008FE
:100B600073656E64000000002C0000209D0D0008DD
:100B700072656365697665003000002010B5044633
:100B800000F062F9FFF79EFF10BD000030B51A4C6F
:100B9000436824681919884215D04B889BB9174BB4
:100BA0001B6899420FD0164B1B688B4201D1144B26
:100BB00018604B684360104B1B68C31A0E4D4C689D
:100BC0002D682C44A3600C4C836824681A19824257
:100BD00011D053887BB90A4B1B68834201D1084B63
:100BE0001A6043685360044B1B68D31A024D446873
:100BF0002D682C44A36030BD4C0000205000002024
:100C0000540000202DE9F04F86B00D469C46DDE9EA
:100C1000106401960F9B04F04008B8F1000F02D059
:100C2000DFF8708101E0DFF87081CDF8008004F01A
:100C30001008B8F1000F01D024F0010404F00108FD
:100C4000B8F1000F02D04FF0300801E04FF020085B
:100C5000C246002704F00208B8F1000F11D0002AA4
:100C600002DA2D2752420CE004F00408B8F1000F1C
:100C700001D02B2705E004F00808B8F1000F00D0E0
:100C80002027002142B94FF0300B8846491C0DF156
:100C9000080909F808B01DE01AE0E146B9F10A0FA9
:100CA00008D14FF00A0BB2FBFBFE0BFB1E28B2FB78
:100CB000FBF202E002F00F08120900BFDDF800901D
:100CC00019F808B08846491C0DF1080909F808B060
:100CD000002AE2D1B14200DD0E469B1B04F0110850
:100CE000B8F1000F10D117B1002B00DD5B1E06E03C
:100CF000A84203D24FF0200880F80080401CB3F1D6
:100D00000008A3F10103F3DC27B1A84200D2077069
:100D10005B1E401C04F01008B8F1000F0AD104E07B
:100D2000A84201D280F800A0401CB3F10008A3F152
:100D30000103F5DC06E0A84203D24FF0300880F84A
:100D40000080401CB046761E8845F4DC08E0A842CE
:100D500005D20DF1080818F8018080F80080401CC9
:100D6000B1F10008A1F1010104DDDDF80480B8F162
:100D7000000FECD106E0A84203D24FF0200880F823
:100D80000080401CB3F10008A3F10103F3DC06B0BE
:100D9000BDE8F08F6B2A00085A2A000808B5002425
:100DA00015E043F69823042269460948006800F0DC
:100DB000C1FC04461CB107A000F0F8FA04E01CB91D
:100DC00009A0009900F0F2FA142001F0E6F8E8E733
:100DD0002800002072656365697665206661696C2C
:100DE00065642021200D0A007265636569766520BF
:100DF000646174612069732025640D0A000000009D
:100E00001CB514200221CB010022CDE900100449B9
:100E100004A001F09AF80446204601F0A3F91CBD95
:100E20007D0B00086D61696E0000000010B5044C78
:100E300002E020688047241D02488442F9D310BD97
:100E4000802A0008842A000810B5044C02E02068BB
:100E50008047241D02488442F9D310BD842A00082B
:100E6000882A000810B5FFF77FF904460448008877
:100E7000401C00B2024908802046FFF779F910BDF6
:100E8000B800002010B5FFF76FF904460C48008841
:100E9000401E00B20A4908800846B0F90000002848
:100EA0000ADC002008802046FFF762F90548006848
:100EB00028B100F005FE02E02046FFF759F910BD09
:100EC000B8000020BC00002070B5054605B970BD13
:100ED0001D480068854203D31C480068854200D342
:100EE000F5E7A5F10C044FF0FF31194800F0B8FE0A
:100EF000608818B12088B0F5F55F08D015A000F023
:100F000055FA23886288214619A000F04FFA002084
:100F100060804FF4F550208021480068844201D25F
:100F20001F480460084960680968611A401A1D4931
:100F30000968081A1B4908602046FFF727FE044885
:100F400000F065FE00BFC2E74C000020500000200A
:100F5000D0120020746F2066726565206120626186
:100F600064206461746120626C6F636B3A0A0000F4
:100F70006D656D3A203078253038782C2075736592
:100F80006420666C61673A2025642C206D61676976
:100F90006320636F64653A203078253034780A0026
:100FA000540000205C00002000487047D80000205A
:100FB00000487047D810002070B51D4800684FF4F5
:100FC0007A72B0FBF2F1B1F1807F00D31DE021F025
:100FD0007F40401E4FF0E022506150170F22002842
:100FE00007DA13071D0E134B00F00F04241F1D55C5
:100FF00003E013071C0E104B1C5400BF00204FF0E1
:10100000E02290610720106100BFFFF709FAFFF7A7
:10101000B7FBFFF7D1F9FFF709FFFFF7C9FF044658
:10102000FFF7C2FF0546214600F0C6FE70BD000076
:101030000000002018ED00E000E400E010B50446D8
:10104000FFF710FF19E020780A280AD10D210E4879
:10105000FFF77CFC00BF80210B48FFF7D9FB00287D
:10106000F9D014F8011B0848FFF770FC00BF80217D
:101070000548FFF7CDFB0028F9D020780028E2D101
:10108000FFF700FF10BD00000038014070B50546B5
:101090002C1D2E48006838B128462C49096888471D
:1010A000064606B970BD00BF29A0E16B00F07EF9CD
:1010B0002BA0216A00F07AF92DA0616A00F076F980
:1010C0002FA0A16A00F072F931A0E16A00F06EF978
:1010D00033A0216800F06AF935A0616800F066F974
:1010E00037A0A16800F062F939A0E16800F05EF96C
:1010F0003BA0216900F05AF93DA0616900F056F962
:101100003FA0A16900F052F941A0E16900F04EF959
:1011100043A0216B00F04AF945A0616B00F046F94D
:1011200047A0A16B00F042F9287800F0040038B124
:1011300000F0F0FF0646314645A000F037F902E026
:101140004BA000F033F900BFFEE700004000002094
:101150007073723A203078253038780A0000000029
:101160007230303A203078253038780A000000009C
:101170007230313A203078253038780A000000008B
:101180007230323A203078253038780A000000007A
:101190007230333A203078253038780A0000000069
:1011A0007230343A203078253038780A0000000058
:1011B0007230353A203078253038780A0000000047
:1011C0007230363A203078253038780A0000000036
:1011D0007230373A203078253038780A0000000025
:1011E0007230383A203078253038780A0000000014
:1011F0007230393A203078253038780A0000000003
:101200007231303A203078253038780A00000000FA
:101210007231313A203078253038780A00000000E9
:101220007231323A203078253038780A00000000D8
:10123000206C723A203078253038780A000000009F
:101240002070633A203078253038780A000000009A
:1012500068617264206661756C74206F6E207468BA
:10126000726561643A2025730D0A0D0A00000000C2
:1012700068617264206661756C74206F6E206861AD
:101280006E646C65720D0A0D0A000000F0B504462C
:101290000D461646301D20F007004038014600225A
:1012A00003E00C4F41F82270521C102AF9D30D6252
:1012B0004FF0000CC1F824C0C1F828C0C1F82CC000
:1012C000C1F830C04B638C634FF0807CC1F83CC0E8
:1012D000F0BD0000EFBEADDE10B5FEF745FF0446E1
:1012E00004480078401C034908702046FEF740FF80
:1012F00010BD00004800002010B5FEF735FF044681
:1013000004480078401E034908702046FEF730FF6D
:1013100010BD00004800002070B504462068A0F110
:101320001405284600F0D8FE002070BD2DE9F041DC
:1013300005460C469046204600F02AFFB8F1000F03
:1013400003D0B8F1010F23D105E004F114012846C0
:1013500000F062F81DE02E680FE0A6F1140794F883
:10136000350097F83510884206DA04F1140107F1C8
:10137000140000F051F802E03668AE42EDD100BF33
:10138000AE4204D104F11401284600F045F800E013
:1013900000BF00BF0020BDE8F08110B5044604F195
:1013A000140000F01BF8002010BD00000FB438B589
:1013B00005A800907F210848009B049A01F0A6F838
:1013C00004467F2C00D97F240348FFF737FE002016
:1013D000009038BC5DF814FB5012002040600060A3
:1013E000704740600060704740600060704702686E
:1013F000516002680A60016048607047026851608D
:1014000002680A60016048607047026851600268C3
:101410000A600160486070474268116042684A6033
:1014200041600860704701460868884201D1012088
:1014300070470020FCE701460868884201D101207E
:1014400070470020FCE7D0E900215160D0E900128C
:101450001160406000607047D0E900215160D0E920
:1014600000121160406000607047D0E900215160B7
:10147000D0E9001211604060006070472DE9F04132
:10148000054615B90020BDE8F081E81C20F00305F1
:101490004E480068854201D90020F4E70C2D00D2A7
:1014A0000C254FF0FF314A4800F0DAFB494800684C
:1014B00049490968461A7EE04748006884196088EF
:1014C000002874D106F10C006168081AA8426ED396
:1014D00006F10C006168091A05F11800814230D349
:1014E00006F10C0000EB05083B48006800EB08071C
:1014F0004FF4F55038800020788060687860BE60D6
:10150000C4F80480012060803048796800680C309D
:10151000814205D03049786809680844C0F80880DD
:101520002E48016805F10C0008442C4908602C483D
:1015300000680968884219D228480068284908606C
:1015400014E001206080244960680968611A401A2B
:10155000224909680844214908602148006809684F
:10156000884203D21D4800681D4908604FF4F550B9
:10157000208018480068844212D107E015480068AE
:101580004068154909680844124908601148006814
:10159000408828B10F480068124909688842EDD197
:1015A0000B4800F034FB04F10C006CE7FFE70A483D
:1015B00000683044466805480068401BB0423FF66A
:1015C0007BAF034800F023FB00205CE758000020BD
:1015D000D0120020540000204C0000205C000020AD
:1015E00060000020500000202DE9F0410F46164613
:1015F00004463D463346102B28D305F0030C04F077
:1016000003084CEA080CBCF1000F1FD121462A4602
:1016100010E052F804CB41F804CB52F804CB41F867
:1016200004CB52F804CB41F804CB52F804CB41F878
:1016300004CB103B102BECD204E052F804CB41F861
:1016400004CB1B1F042BF8D20C46154603E015F8FB
:1016500001CB04F801CBB3F1000CA3F10103F6D1E7
:10166000BDE8F081F0B50C460546E6B2042A15D374
:1016700000F0030797B9014646EA062343EA03430D
:1016800004E008C108C108C108C1103A102AF8D204
:1016900001E008C1121F042AFBD20D4601E005F843
:1016A000016B171EA2F10102F9D1F0BD2DE9F0473F
:1016B0000746884691469A463946062000F06CF95E
:1016C000044614B92046BDE8F08784F809A02046F6
:1016D000FFF763FE08F1030020F003002084A4F864
:1016E0002290218C091D628C01FB02F0FFF7C6FEDF
:1016F000E061E06920B9204600F078F90020E2E7D7
:101700000020A062E0622063002508E0208C001D1C
:10171000E16905FB0016206B306026636D1C608C50
:10172000A842F3DC0020A08404F13400FFF756FE49
:101730002046C8E72DE9FF4704460F4690464FF084
:10174000000900F0E7FC0546FEF70EFD8246A08C7E
:1017500048B9039838B95046FEF70AFD6FF001000A
:1017600004B0BDE8F0873CE000202863039830B95E
:101770005046FEF7FDFC6FF001002863F0E7627A47
:10178000294604F11400FFF7D1FD039800280CDD71
:1017900000F062FD814603AA002105F1440000F03B
:1017A000CBFD05F1440000F023FE5046FEF7E0FCBF
:1017B00000F086F9286B08B1286BD1E7FEF7D4FC5E
:1017C0008246039800280CDD00F046FDA0EB0909D5
:1017D0000398A0EB090003900398002801DA002089
:1017E0000390A08C0028BFD0A66A3068A062E06A8F
:1017F000B04201D10020E062A08C002802DDA08C64
:10180000401EA0845046FEF7B3FC208C404501D218
:10181000208C00E040460246311D3846FFF7E4FECA
:10182000FEF7A2FC8246206B3060266304F1340090
:10183000FFF7F9FD50B904F13400FFF76DFD504694
:10184000FEF796FC00F03CF9002089E75046FEF7D1
:101850008FFC002084E770B504460D461646002331
:1018600032462946204600F001F870BD2DE9FF47B9
:10187000044689469046208C404504D24FF0FF3004
:1018800004B0BDE8F087002700F044FC0646FEF7F0
:101890006BFC8246256B35B9039820B95046FEF79C
:1018A00067FCF81EECE739E000203063039828B9A4
:1018B0005046FEF75DFC6FF00200E1E7627A3146C8
:1018C00004F13400FFF732FD039800280CDD00F02E
:1018D000C3FC074603AA002106F1440000F02CFDDA
:1018E00006F1440000F084FD5046FEF741FC00F094
:1018F000E7F8306B08B1306BC2E7FEF735FC824683
:10190000039800280ADD00F0A7FCC71B0398C01B42
:1019100003900398002801DA00200390206B051E35
:10192000C2D0286820635046FEF722FC00202860C1
:1019300042464946281DFFF757FEFEF715FC824632
:10194000E06A08B1E06A0560E562A06A00B9A562D4
:10195000A08C4FF6FF71884203DAA08C401CA08453
:1019600005E05046FEF704FC6FF0020088E704F142
:101970001400FFF758FD50B904F11400FFF7CCFC38
:101980005046FEF7F5FB00F09BF8002078E7504644
:10199000FEF7EEFB002073E72DE9F04106460F4607
:1019A000304600F045F80546E868FFF767FD044655
:1019B00014B90020BDE8F08100212046EA68FFF755
:1019C00051FE26720020607208223946204600F03F
:1019D000D9F9FEF7C9FB804604F10C01281DFFF779
:1019E00006FD4046FEF7C4FB2046E3E770B504461B
:1019F00000202072FEF7B8FB054604F10C00FFF74B
:101A000022FD2846FEF7B4FB2046FFF75DFA70BDC5
:101A100070B5044600202072FEF7A6FB054604F1CF
:101A20000C00FFF710FD2846FEF7A2FB70BD00007A
:101A3000024600210AE0074800EB011000789042BE
:101A400003D1044800EB01107047491C0529F2DB63
:101A50000020F9E7640000202DE9F04704460D4618
:101A6000904600262846FFF7E3FF0746FFF7FAF9FE
:101A70007E6802E0A6F10C003668381D8642F9D176
:101A8000FFF700FA45F08000207208224146204608
:101A900000F078F9FEF768FB814604F10C01381D6F
:101AA000FFF7A5FC4846FEF763FBBDE8F08701465B
:101AB000087A00F0800008B1012070470020FCE7A0
:101AC0002DE9F041FEF750FB07461848008838BB67
:101AD00017480068FEF740FF461E164850F83600CB
:101AE000A0F1140414480068844218D013490E7001
:101AF0001148056804601248007850B904F11C01CF
:101B000005F11C00FEF737FB3846FEF731FBBDE858
:101B1000F08104F11C0105F11C00FEF72CFB00BF55
:101B20003846FEF725FB00BFF1E70000B8000020B3
:101B3000B4000020F0120020BC000020C0000020F3
:101B40004800002070B50446FEF70EFB054614F869
:101B5000340F20F00F0040F0010020706278343C18
:101B60000A4B03EBC20004F11401426811604268A1
:101B70004A604160086000BF0549A06B09680843DE
:101B8000034908602846FEF7F3FA70BDF012002002
:101B9000B400002070B50446FEF7E6FA054604F1ED
:101BA0001400D0E900215160D0E9001211604060BA
:101BB000006000BF94F83510094A02EBC1000168CB
:101BC000814201D1012100E0002129B10548A16B2A
:101BD00000688843034908602846FEF7C9FA70BDCB
:101BE000F0120020B40000202DE9F04104460D461B
:101BF00016461F462A4602212046FFF72DFF2046A3
:101C0000FFF7CBFBA68367720020BDE8F08170B5BB
:101C100004460025FEF7A8FA064604F11400FFF773
:101C200002FC28B904F11400FFF776FB01250EE051
:101C3000A08B4FF6FF71884203DAA08B401CA08373
:101C400005E03046FEF794FA6FF0020070BD3046B2
:101C5000FEF78EFA012D01D1FFF732FF0020F5E7E4
:101C600073B50546FEF780FA0646A88B002806DD08
:101C7000A88B401EA8833046FEF77AFA28E0019828
:101C800028B93046FEF774FA6FF001007CBD00F011
:101C900041FA0446002020636A7A214605F11400C7
:101CA000FFF744FB0198002809DD01AA002104F197
:101CB000440000F041FB04F1440000F099FB304681
:101CC000FEF756FAFFF7FCFE206B08B1206BDDE74C
:101CD0000020DBE708B509A0FFF768FB0AA0FFF7C3
:101CE00065FB12A0052301220321009012A0FFF73B
:101CF0005DFB19A0FFF75AFB08BD00000A205C201D
:101D00007C202F0A000000002D205254202D20207E
:101D1000202020546872656164204F706572617480
:101D2000696E672053797374656D0A004A756E2079
:101D30003234203230323500202F207C205C2020AD
:101D400020202025642E25642E2564206275696C70
:101D5000642025730A0000002032303036202D2008
:101D60003230323020436F70797269676874206254
:101D7000792072742D746872656164207465616D78
:101D80000A00000070B50346A2B118460C4600BF19
:101D900014F8016B00F8016B3EB902E0002500F871
:101DA000015B551E2A1EF9D102E0551E2A1EEFD1F5
:101DB00000BF00BF184670BD2DE9F04105460E4634
:101DC000E81C20F0030726F00308B8F1180F09D922
:101DD000A8F11800B84205D3A8EB070018381E492F
:101DE000086006E0324629461CA0FFF7DFFABDE88E
:101DF000F0812948076004684FF4F55020801648A8
:101E000000680C3060600020A0606080224960683B
:101E100009680844214908604FF4F55009680880B2
:101E200001201E49096848800B4800680C301B4996
:101E300009684860084800680C30184909688860DB
:101E40000023012216A11848FFF7CEFE12480068B1
:101E50001649086000BFCAE7580000206D656D2074
:101E6000696E69742C206572726F72206265676991
:101E70006E206164647265737320307825782C203D
:101E8000616E6420656E64206164647265737320A2
:101E9000307825780A0000004C0000205000002017
:101EA0006865617000000000D0120020540000201E
:101EB00010B500200B490880002405E00A4901EB19
:101EC000C400FFF78EFA641C082CF7DB07200749D3
:101ED0000870002006490860064908600648FFF7B8
:101EE00080FA10BDB8000020F0120020C0000020D1
:101EF000BC000020B4000020C400002070B50848D9
:101F00000068FEF729FD451E064850F83500A0F18F
:101F100014040548046004F11C00FEF75AF970BD72
:101F2000B4000020F0120020BC00002010B50024F6
:101F300005E0044901EBC400FFF756FA641C002CCD
:101F4000F7D010BDCC00002070472DE9FF5F06469A
:101F50000F4690461D46DDE90EAB31460120FFF7E6
:101F60001BFD8146B9F1000F03D1002004B0BDE88C
:101F7000F09F2846FFF782FA044624B94846FFF747
:101F800035FD0020F2E743463A46314648468DE8A3
:101F9000300CFEF717FD4846E8E710B5044620462A
:101FA00000F0BEF810BD000070B513480468FEF7DD
:101FB000DBF805462046FEF776FD2046FFF7EAFDF2
:101FC000042084F8340004F1440000F0E6F92046CF
:101FD000FFF76DFD012803D12046FFF719FD04E04E
:101FE00004F114010548FFF709FAFFF769FD2846D7
:101FF000FEF7BEF870BD0000BC000020C400002049
:1020000001E000F001F8FCE770B528E0FEF7ACF85D
:10201000054600BF13480168814201D0012100E05C
:10202000002119B92846FEF7A3F819E00D48006809
:10203000A0F1140404F11400D0E900215160D0E9AA
:10204000001211604060006000BFA06AFEF73CFF14
:102050002046FFF7CBFC2846FEF78AF800BFD5E7FD
:1020600000BF70BDC40000201FB520200721C200A2
:10207000074BCDE90032CDE902100023054A06A145
:10208000074800F00FF8064800F06CF81FBD00008C
:1020900050110020012000087469646C6500000084
:1020A000D81000202DE9FF5F05460C4616461F4656
:1020B000DDE910ABDDE90E89224601212846FFF754
:1020C000CBFC3B463246214628468DE8000FFEF702
:1020D00079FC04B0BDE8F09F70B5044694F8340074
:1020E00000F00F00022802D04FF0FF3070BDFEF765
:1020F0003BF8054604F11400FFF7AEF904F1440083
:1021000000F0ECF92846FEF733F82046FFF71AFDF9
:102110000020EBE70148006870470000BC00002089
:1021200031B5FEF721F805460D480468204600F059
:102130002FF86A46002104F1440000F0FDF804F194
:10214000440000F055F92846FEF712F8FFF7B8FCF6
:10215000206B801C08B900202063002038BD0000DF
:10216000BC00002010B504463434A078607061785B
:10217000012088406060022004F834092046FFF7FF
:10218000ABFFFFF7C7FF08B1FFF79AFC002010BDB7
:1021900070B5044694F8340000F00F00012802D016
:1021A0004FF0FF3070BDFDF7DFFF05462046FFF71B
:1021B000F1FC94F8340020F00F0040F0020084F8A5
:1021C000340004F1440000F089F92846FDF7D0FFFF
:1021D0000020E7E770B5044625466FF0010028634C
:1021E00005F11400FFF738F92846FFF7ABFCFFF7BD
:1021F00067FC70BD70B5FDF7B7FF0546144804686D
:1022000094F8340000F00F0001281CD1D4E9051027
:10221000814218D004F11400FFF71EF994F835201C
:102220000C4B03EBC20004F11401426811604268D8
:102230004A604160086000BF2846FDF799FFFFF73C
:102240003FFC002070BD2846FDF792FF0020F9E713
:10225000BC000020F0120020014800687047000018
:102260004400002010B50A480068401C0849086076
:10227000FFF750FF0446206C401E2064206C18B904
:10228000E06B2064FFF7B6FF00F004F810BD00001B
:10229000440000207CB56846FFF7A6F8FFF7DCFF96
:1022A0000546FDF761FF06463AE022480068A0F1C6
:1022B0001404A06A281A6FF0004188422ED22046EA
:1022C000FEF7E3FB607A00F0020018B9607A20F0B4
:1022D0000100607204F114016846FFF796F8D4E932
:1022E00007108847FFF7B8FF05466846FFF7A3F8D1
:1022F00000B115E004F11400FFF7B7F8607A00F0C0
:10230000020060B1607A00F0010040B1607A20F014
:1023100001006072204600F06BF800E005E000BFAD
:102320000448FFF788F80028BFD000BF3046FDF70B
:102330001FFF7CBDCC0000202DE9F04104460E4675
:102340001546FDF711FF0746052E1ED2DFE806F001
:102350000603090E1300606A286017E028686062AF
:1023600014E0607A20F0020060720FE0607A40F0C2
:10237000020060720AE0607A00F0010010B10120F2
:10238000286001E00020286000E000BF00BF384660
:10239000FDF7EEFE0020BDE8F08170B50446FDF7C4
:1023A000E3FE05462046FEF770FB607A20F0010050
:1023B00060722846FDF7DCFE2046FFF729FB00206F
:1023C00070BD2DE9F84307460C4615461E46DDE96B
:1023D000088922460A213846FFF73EFB434632462B
:1023E00029463846CDF80090FEF72EFBBDE8F8836D
:1023F0002DE9F8430546FDF7B7FE80462846FEF76F
:1024000044FB687A20F001006872FFF725FF696AD3
:102410000844A8622F4F009700242AE019E05DF8D5
:1024200024201168142202EBC402881A826AAB6A63
:10243000D21A00D108E0826AAB6AD21A6FF0004368
:102440009A4200D20CE000BF5DF8240000684DF80D
:1024500024005DF8240007EBC40149688842DED1FE
:1024600000BF2CB15DF824000830611C4DF821003C
:10247000641C002CD2D018480068401C1649086023
:102480000846066805F114010098FEF7BEFF022415
:1024900012E006F0030060B9C4F1010305F1140273
:1024A00002EBC301C4F101025DF82200FEF7ADFFAB
:1024B00000E003E0B608641C012CEAD900BF687A8A
:1024C00040F0010068724046FDF752FE0020BDE872
:1024D000F8830000CC000020D400002070B5044632
:1024E000607A00F0010010B94FF0FF3070BDFDF7C9
:1024F0003BFE05462046FEF7C8FA607A20F0010050
:1025000060722846FDF734FE0020EFE72DE9FF4F0B
:1025100089B081464C460A9809EB00064E4504D224
:102520004FF0FF36A6EB09000A9077E10B98007890
:10253000252806D0B44202D20B9800782070641C83
:1025400069E1002526E00B98401C0B900B98007861
:102550002D2802D145F010051CE00B9800782B289F
:1025600002D145F0040515E00B980078202802D12F
:1025700045F008050EE00B980078232802D145F0BD
:10258000200507E00B980078302802D145F00105BE
:1025900000E000E0D7E700BF4FF0FF370B9800786E
:1025A00030380A2804D20BA800F0C4F907460EE020
:1025B0000B9800782A280AD10B98401C0B900C9895
:1025C00080C80C90002F02DA7F4245F010054FF0D2
:1025D000FF3A0B9800782E281CD10B98401C0B90CA
:1025E0000B98007830380A2804D20BA800F0A2F922
:1025F00082460AE00B9800782A2806D10B98401CE6
:102600000B900C9850F804AB0C90BAF1000F01DA63
:102610004FF0000A002004900B980078682803D03F
:102620000B9800786C2805D10B98007804900B98D3
:10263000401C0B900A2005900B9800786F2873D0EF
:102640000CDC632813D004DC25286ED058286DD10B
:1026500095E064286BD06928F9D197E0702873D091
:10266000732825D075286ED07828F0D18AE005F03F
:10267000100040B904E0B44201D220202070641C54
:10268000781E071EF7DC0C9810F8041B0C90C8B2DB
:102690000790B44201D207982070641C04E0B44251
:1026A00001D220202070641C781E071EF7DCB2E0E7
:1026B0000C98006806900C98001D0C90069808B9BC
:1026C00060A006904FF0000801E008F10108B8454D
:1026D00004D0069810F808000028F6D1BAF1000FCF
:1026E00002DDD04500DDD04605F0100048B904E019
:1026F000B44201D220202070641C38467F1E404521
:10270000F6DC002008900BE0B44202D20698007874
:102710002070641C0698401C06900898401C089085
:1027200008984045F0DB09E026E01FE032E02CE0AD
:102730000AE0B44201D220202070641C38467F1E7B
:102740004045F6DC67E024E0781C10B9082745F026
:102750000105CDE9007A02950C9804C81023314692
:102760000C902046FEF74EFA044654E0B44201D2E3
:1027700025202070641C4EE0082005901DE045F0E7
:10278000400500BF1020059017E000BF45F002058E
:1027900000BF12E0B44201D225202070641C0B98C7
:1027A000007830B1B44202D20B9800782070641CDB
:1027B00002E00B98401E0B902DE000BF04986C289F
:1027C00007D10C9850F804BB0C9005F00200B8B18A
:1027D00016E0049868280BD10C9830F8041B1FFAF7
:1027E00081FB0C9005F0020050B10FFA8BFB07E063
:1027F0000C9850F804BB0C9005F0020000B100BF2B
:10280000CDE9007A02955A4631462046059BFEF7EF
:10281000F9F9044600BF0B98401C0B900B98007808
:1028200000287FF483AE0A9838B1B44202D2002067
:10283000207002E0002006F8010CA4EB09000DB0A6
:10284000BDE8F08F284E554C4C2900000020704701
:1028500000207047002070470020704710B5FDF73A
:1028600083FCFEF7A9FBFFF735FAFFF75FFBFFF7E5
:102870001FFBFEF7C5FAFFF767FBFFF7F5FBFFF756
:102880003DFB002010BD00001CB50120019002207E
:102890000090002428E001211448FDF7ADFD012837
:1028A0000AD1042201A912480068FEF7D4FF0446A9
:1028B00014B110A0FEF77AFD4FF400511348FDF754
:1028C0009BFD01280DD112A0FEF770FD0422694680
:1028D00007480068FEF7BFFF044614B10FA0FEF7DB
:1028E00065FD1420FFF759FBD5E700000008014003
:1028F0002800002073656E642064617461203120BB
:102900006661696C656420210D0A000000100140B9
:10291000313131313131210D0A00000073656E64AF
:1029200020646174612032206661696C65642021D5
:102930000D0A00000146002009E00B685A1C0A60DD
:102940001A7800EB800302EB4302A2F130000A6820
:102950001278303A0A2AF0D37047000001000200D2
:102960000100030001000200010004000100020058
:102970000100030001000200010005000100020047
:102980000100030001000200010004000100020038
:102990000100030001000200010006000100020026
:1029A0000100030001000200010004000100020018
:1029B0000100030001000200010005000100020007
:1029C00001000300010002000100040001000200F8
:1029D00001000300010002000100070001000200E5
:1029E00001000300010002000100040001000200D8
:1029F00001000300010002000100050001000200C7
:102A000001000300010002000100040001000200B7
:102A100001000300010002000100060001000200A5
:102A20000100030001000200010004000100020097
:102A30000100030001000200010005000100020086
:102A40000100030001000200010004000100020077
:102A5000010003000100020001003031323334353F
:102A60003637383961626364656600303132333439
:102A70003536373839414243444546005928000825
:102A8000512800084D28000855280008AC2A0008E5
:102A900000000020D8000000A4090008842B0008D2
:102AA000D800002058160000B409000800A24A040B
:102AB00000000000000000000102030406070809EE
:102AC00000000000010203040102030406070809D4
:102AD00002040608000000000000000000000000E2
:102AE00000000000000000000000000000000000E6
:102AF00000000000000000000000000000000000D6
:102B000000000000000000000000000000000000C5
:102B1000010000006800002068000020780000002C
:102B20000200000078000020780000202000000053
:102B30000500000088000020880000203000000010
:102B40000600000098000020980000203C000000D3
:102B50000A000000A8000020A80000202C000000AF
:102B60000000000000000000000000000000000065
:102B70000000000000000000000000000000000055
:042B80000000000051
:0400000508000131BD
:00000001FF
